:100000000C9435000C945D000C945D000C945D0024
:100010000C945D000C945D000C945D000C945D00EC
:100020000C945D000C945D000C945D000C945D00DC
:100030000C945D000C945D000C945D000C945D00CC
:100040000C9487000C945D000C9464010C94B60130
:100050000C945D000C945D000C945D000C945D00AC
:100060000C945D000C945D00250311241FBECFEF9E
:10007000D4E0DEBFCDBF11E0A0E0B1E0EEEAF8E0F1
:1000800002C005900D92AC31B107D9F711E0ACE197
:10009000B1E001C01D92A13DB107E1F710E0CAE651
:1000A000D0E004C02297FE010E945104C836D10757
:1000B000C9F70E94F5030C945F000C940000F894BB
:1000C0000C94550480911C0190911D010196909310
:1000D0001D0180931C01019764E670E00E940604F4
:1000E000BC0160507F4F8FEA91E00E94E10364EF12
:1000F00071E080E090E00E94CF0008958FEA91E0E7
:1001000040E855E260E070E00E94F10108951F921E
:100110000F920FB60F9211242F933F938F939F93BB
:10012000AF93BF938091220190912301A09124016C
:10013000B0912501309126010196A11DB11D232FFB
:100140002D5F2D3720F02D570196A11DB11D209355
:1001500026018093220190932301A0932401B09360
:10016000250180911E0190911F01A0912001B09165
:1001700021010196A11DB11D80931E0190931F01C5
:10018000A0932001B0932101BF91AF919F918F91D6
:100190003F912F910F900FBE0F901F9018959B01CC
:1001A000AC017FB7F89480911E0190911F01A0913E
:1001B0002001B091210166B5A89B05C06F3F19F0E1
:1001C0000196A11DB11D7FBFBA2FA92F982F882797
:1001D000860F911DA11DB11D62E0880F991FAA1FF6
:1001E000BB1F6A95D1F7BC012DC0FFB7F894809171
:1001F0001E0190911F01A0912001B0912101E6B54F
:10020000A89B05C0EF3F19F00196A11DB11DFFBFCE
:10021000BA2FA92F982F88278E0F911DA11DB11DD0
:10022000E2E0880F991FAA1FBB1FEA95D1F7861B32
:10023000970B885E9340C8F22150304040405040B8
:1002400068517C4F211531054105510571F608951E
:10025000789484B5826084BD84B5816084BD85B5A1
:10026000826085BD85B5816085BDEEE6F0E0808168
:1002700081608083E1E8F0E0108280818260808389
:10028000808181608083E0E8F0E08081816080830C
:10029000E1EBF0E0808184608083E0EBF0E080813E
:1002A00081608083EAE7F0E08081846080838081E0
:1002B0008260808380818160808380818068808388
:1002C0001092C100089508951F920F920FB60F92D9
:1002D00011242F933F934F938F939F93EF93FF930B
:1002E0008091C00082FD1DC04091C6002091670131
:1002F000309168012F5F3F4F2F73307080916901FB
:1003000090916A012817390771F0E0916701F09127
:100310006801E95DFE4F40833093680120936701D7
:1003200002C08091C600FF91EF919F918F914F91F4
:100330003F912F910F900FBE0F901F901895E09155
:10034000BB01F091BC01E05CFF4F81919191208154
:100350003181805C9F4F821B930B60E470E00E94B0
:100360000604892B11F00E94630108951F920F92D9
:100370000FB60F9211242F933F938F939F93EF9378
:10038000FF932091AB013091AC018091AD01909130
:10039000AE012817390731F48091C1008F7D809319
:1003A000C10014C0E091AD01F091AE01E559FE4FDE
:1003B00020818091AD019091AE0101968F73907074
:1003C0009093AE018093AD012093C600FF91EF9111
:1003D0009F918F913F912F910F900FBE0F901F9083
:1003E0001895AF92BF92DF92EF92FF920F931F93F7
:1003F000CF93DF93EC017A018B01DD24403081EE55
:10040000580780E0680780E0780711F0DD24D39476
:1004100091E0A92EB12CEC89FD89DD2069F0C501A0
:1004200008A002C0880F991F0A94E2F7808360E059
:1004300079E08DE390E005C0108260E874E88EE119
:1004400090E0A80197010E941904215030404040DB
:100450005040569547953795279580E120303807CD
:1004600020F0DD2011F0DD24D6CFE889F989308332
:10047000EA89FB89208319A2EE89FF89408121E066
:1004800030E0C9010C8C02C0880F991F0A94E2F772
:10049000482B4083EE89FF894081C9010D8C02C041
:1004A000880F991F0A94E2F7482B4083EE89FF8951
:1004B0004081C9010E8C02C0880F991F0A94E2F78F
:1004C000482B4083EE89FF8980810F8C02C0220F68
:1004D000331F0A94E2F7209528232083DF91CF91E0
:1004E0001F910F91FF90EF90DF90BF90AF90089514
:1004F000DC011C96ED91FC911D97E05CFF4F819112
:10050000919120813181805C9F4F821B930B60E42D
:1005100070E00E9406040895DC011C96ED91FC91A8
:100520001D97E05CFF4F20813181E054F040DF01F6
:10053000AE5BBF4F8D919C9111972817390719F425
:100540002FEF3FEF07C08D919C91E80FF91F80813D
:10055000282F30E0C9010895DC011C96ED91FC9133
:100560001D97E05CFF4F20813181E054F040DF01B6
:10057000AE5BBF4F8D919C9111972817390719F4E5
:100580002FEF3FEF10C08D919C911197E80FF91F4D
:1005900020818D919C91119701968F739070119687
:1005A0009C938E9330E0C9010895DC0191968C9163
:1005B0009197882339F05496ED91FC91559780815D
:1005C00086FFF9CF91961C920895CF93DF93EC01AB
:1005D000EE85FF85E05CFF4F20813181E054F040E3
:1005E0002F5F3F4F2F733070DF01AE5BBF4F8D9198
:1005F0009C91119728173907D1F3E05CFF4F808158
:100600009181E054F040E80FF91F6083EE85FF858B
:10061000E05CFF4F31832083EE89FF89208181E0F8
:1006200090E00F8C02C0880F991F0A94E2F7282BE4
:10063000208381E089A3EC89FD89808180648083A7
:1006400081E090E0DF91CF9108951092B201109275
:10065000B10188EE93E0A0E0B0E08093B301909305
:10066000B401A093B501B093B60180E191E09093FD
:10067000B0018093AF0187E291E09093BC01809339
:10068000BB018BE691E09093BE018093BD0185ECA8
:1006900090E09093C0018093BF0184EC90E0909330
:1006A000C2018093C10180EC90E09093C4018093DB
:1006B000C30181EC90E09093C6018093C50182EC68
:1006C00090E09093C8018093C70186EC90E09093EE
:1006D000CA018093C90184E08093CB0183E08093B9
:1006E000CC0187E08093CD0185E08093CE0181E04D
:1006F0008093CF010895CF92DF92EF92FF920F93F4
:100700001F93CF93DF937C016B018A01C0E0D0E09F
:100710000FC0D6016D916D01D701ED91FC91019053
:10072000F081E02DC7010995C80FD91F0150104075
:100730000115110571F7CE01DF91CF911F910F9136
:10074000FF90EF90DF90CF900895EF92FF920F937C
:100750001F938C01DC01ED91FC910190F081E02D63
:100760006DE009957C01D801ED91FC910190F0813B
:10077000E02DC8016AE009959C012E0D3F1DC901BD
:100780001F910F91FF90EF900895CF93DF93EC01AD
:100790006115710519F420E030E00FC0DB010D9008
:1007A0000020E9F71197A61BB70BE881F9810280B9
:1007B000F381E02DAD0109959C01C901DF91CF9135
:1007C0000895EF92FF920F931F937C010E94C5033F
:1007D0008C01C7010E94A503080F191FC8011F91B2
:1007E0000F91FF90EF9008950895CF93DF930E94AB
:1007F00028010E94F4030E947E00CFE9D1E00E940C
:1008000062002097E1F30E949F01F9CF97FB092E28
:1008100007260AD077FD04D02ED006D000201AF487
:10082000709561957F4F0895F6F7909581959F4F4C
:100830000895A1E21A2EAA1BBB1BFD010DC0AA1F21
:10084000BB1FEE1FFF1FA217B307E407F50720F039
:10085000A21BB30BE40BF50B661F771F881F991FB4
:100860001A9469F760957095809590959B01AC01FD
:10087000BD01CF010895AA1BBB1B51E107C0AA1FF0
:10088000BB1FA617B70710F0A61BB70B881F991F31
:100890005A95A9F780959095BC01CD010895EE0F6A
:0E08A000FF1F0590F491E02D0994F894FFCF0E
:1008AE0048656C6C6F576F726C642000000000001E
:0C08BE00E5027B037802AC028C02D5023C
:00000001FF
